:02000004700288
:1000000020122270C1010270CF010270D101027072
:10001000D3010270D5010270D70102700000000008
:10002000000000000000000000000000D901027084
:10003000DB01027000000000DD010270DF010270D0
:10004000E101027000000000E1010270E1010270B4
:1000500000000000E1010270E1010270E1010270A4
:10006000E1010270E1010270E1010270E101027040
:10007000E1010270E1010270E1010270E101027030
:10008000E1010270E1010270E1010270E101027020
:10009000000000000000000000000000E10102700C
:1000A000E1010270E1010270E1010270E101027000
:1000B000E1010270E1010270E1010270E1010270F0
:1000C000E1010270E1010270E1010270E1010270E0
:1000D000E1010270E1010270E1010270E1010270D0
:1000E000E1010270E1010270E1010270E1010270C0
:1000F000E1010270E1010270E1010270E1010270B0
:10010000E1010270E1010270E1010270E10102709F
:10011000E1010270E101027000000000E1010270E3
:10012000E1010270E1010270E1010270E10102707F
:10013000E1010270E1010270E1010270E10102706F
:10014000000000000000000000000000E10102705B
:10015000E1010270E1010270E101027000000000A3
:10016000E1010270E10102700000000000000000E7
:10017000000000000000000000000000000000007F
:1001800000000000E101027000000000000000001B
:10019000E101027000000000E1010270E101027063
:1001A000E101027000000000E1010270DFF80CD0F4
:1001B00000F036FE00480047ED0102702012227068
:1001C0000848016841F47001016007480047FEE7F4
:1001D000FEE7FEE7FEE7FEE7FEE7FEE7FEE7FEE7F7
:1001E000FEE7000088ED00E0AD0102701CB50121C2
:1001F000082000F06FFD4FF48070009003208DF810
:10020000040010208DF8050069460D4800F052F8F2
:1002100015E04FF480710A4800F03EF9002400E038
:10022000641C08488442FBD34FF48071044800F0FA
:100230003CF9002400E0641C02488442FBD3E8E758
:10024000000C024080841E0010B50446C9482044BA
:1002500048B1B0F5806F0FD0B0F5006F15D0B0F594
:10026000406F24D11AE00121084600F033FD00213F
:10027000012000F02FFD1BE00121022000F02AFDEB
:100280000021022000F026FD12E00121042000F0F0
:1002900021FD0021042000F01DFD09E001210820BE
:1002A00000F018FD0021082000F014FD00E000BF60
:1002B00000BF10BD2DE9F0410346002500260020B7
:1002C00000220024002791F805C00CF00F0591F8DA
:1002D00005C00CF0100CBCF1000F03D091F804C065
:1002E0004CEA050591F800C0BCF1000F31D01C6844
:1002F00000202BE04FF0010C0CFA00F2D1F800C006
:100300000CEA0206964220D182004FF00F0C0CFA44
:1003100002F7BC4305FA02FC4CEA040491F805C05C
:10032000BCF1280F06D14FF0010C0CFA00FCC3F809
:1003300014C00AE091F805C0BCF1480F05D14FF098
:10034000010C0CFA00FCC3F810C0401C0828D1D3E3
:100350001C60D1F800C0BCF1FF0F34D95C680020EC
:100360002EE000F1080C4FF0010808FA0CF2D1F869
:1003700000C00CEA0206964221D182004FF00F0C19
:100380000CFA02F7BC4305FA02FC4CEA040491F8AB
:1003900005C0BCF1280F05D100F1080C08FA0CF8D3
:1003A000C3F8148091F805C0BCF1480F07D100F1E3
:1003B000080C4FF0010808FA0CF8C3F81080401C34
:1003C0000828CED35C60D1F800C04FEA1C4CBCF1C9
:1003D000000F3DD0D1F800C04FEA1C4CC1F800C05E
:1003E000DFF894C1DCF8284000202BE04FF0010C2E
:1003F0000CFA00F2D1F800C00CEA0206964220D1B5
:1004000082004FF00F0C0CFA02F7BC4305FA02FC15
:100410004CEA040491F805C0BCF1280F06D14FF056
:10042000010C0CFA00FCC3F814C00AE091F805C0F6
:10043000BCF1480F05D14FF0010C0CFA00FCC3F8D9
:1004400010C0401C0828D1D3DFF82CC1CCF82840BC
:10045000BDE8F0816FF07F4101600221017104214C
:10046000417170470246002093680B400BB1012098
:1004700000E0002070470146886880B2704702465D
:100480000020D3680B400BB1012000E00020704732
:100490000146C86880B27047B1F5004F03D90A0C15
:1004A000354BDA6200E001617047416170470AB183
:1004B000016100E041617047C16070474FF48032D4
:1004C0000A43826181618261826982697047F0B505
:1004D00003460C46250CD5B1210C002015E001F097
:1004E00001057DB1244D2D6B87000F26BE40B5431D
:1004F000214E356335462D6B860002FA06F63543EC
:100500001D4E35634908451CE8B20828E7DB04F4B2
:100510007F45B5B1210A002011E001F001055DB170
:100520005D6A87000F26BE40B5435D625D6A860046
:1005300002FA06F635435D624908451CE8B2082810
:10054000EBDBE5B2ADB1002011E001F001055DB1DA
:100550001D6A87000F26BE40B5431D621D6A8600D6
:1005600002FA06F635431D624908451CE8B2082820
:10057000EBDBF0BD0000FEBF001002400021F84A96
:10058000116821F0030101431160022812D1F54ADC
:10059000126802F4803232B1F24A1278F24B5A43B6
:1005A000F24B1A600FE0EF4A1278F14B5A43EF4BCF
:1005B0001A6008E0012803D1EB4AEC4B1A6002E014
:1005C000E94AEA4B1A60704740B1E54908390968C1
:1005D00041F08071E24A083A116007E0E0490839C9
:1005E000096821F08071DE4A083A1160704770B5E1
:1005F0000446002014B920F4800007E0D94D2D688E
:1006000045F48035D74E356040F4800001F07F011D
:1006100002F0030203F00F038D0145EA02151D43AA
:100620002843CF4D2D1F286070BD70B506460C467F
:100630000025CB48056825F47C153543056044B991
:100640000220C849086000231A4601213046FFF7FE
:10065000CEFFB4F5802F08D10320C24908600023E3
:100660001A4602213046FFF7C2FFB4F5002F08D129
:100670000420BC49086000231A4603213046FFF7D6
:10068000B6FFB4F5402F08D10520B6490860012314
:100690001A4613213046FFF7AAFFB4F5801F08D190
:1006A0000620B049086000231A4605213046FFF7AE
:1006B0009EFFB4F5A01F08D10720AA4908600023B7
:1006C0001A4606213046FFF792FFB4F5C01F08D145
:1006D0000820A449086000231A4607213046FFF786
:1006E00086FFB4F5E01F08D109209E490860002369
:1006F0001A4608213046FFF77AFFB4F5001F08D1EB
:100700000A209849086000231A4609213046FFF75D
:100710006EFFB4F5101F08D10B209249086000232A
:100720001A460A213046FFF762FFB4F5201F08D1B0
:100730000C208C49086000231A460B213046FFF735
:1007400056FFB4F5301F08D10D20864908600023FC
:100750001A460C213046FFF74AFFB4F5401F08D176
:100760000E208049086000231A460D213046FFF70D
:100770003EFFB4F5501F08D10F207A4908600023CE
:100780001A460E213046FFF732FFB4F5601F08D13C
:1007900010207449086000231A460F213046FFF7E5
:1007A00026FFB4F5701F08D111206E4908600023A0
:1007B0001A4610213046FFF71AFFB4F5800F08D112
:1007C00012206849086000231A4611213046FFF7BD
:1007D0000EFFB4F5980F08D113206249086000237A
:1007E0001A4612213046FFF702FFB4F5A00F08D1D8
:1007F00014205C49086000231A4613213046FFF795
:10080000F6FEB4F5A80F08D115205649086000235C
:100810001A4614213046FFF7EAFEB4F5B00F08D1AE
:1008200016205049086000231A4615213046FFF76C
:10083000DEFE5048844208D117204A490860002350
:100840001A4616213046FFF7D2FE4B48844208D1A3
:1008500018204449086000231A4617213046FFF744
:10086000C6FE4648844208D119203E49086000234C
:100870001A4618213046FFF7BAFE4148844208D193
:100880001A203849086000231A4619213046FFF71C
:10089000AEFE3C48844208D11B2032490860002348
:1008A0001A4620213046FFF7A2FE3748844208D17D
:1008B0001C202C49086000231A4621213046FFF7EE
:1008C00096FE70BD10B501460022002300204A119B
:1008D000012A03D1224C083C236808E0022A03D1F4
:1008E0001F4C2834236802E01D4C2C34236801F08F
:1008F0001F02012494401C400CB1012000E00020A4
:1009000010BD38B5002000900024002500BF312024
:10091000FFF7D8FF05460098401C00901DB90098CD
:10092000B0F5A06FF3D13120FFF7CCFF08B101245F
:1009300000E00024204638BD09490839096821F43F
:100940008031074A083A11601146096821F4802174
:100950001160B0F5803F19D0B0F5802F24D11CE094
:10096000083802400400227000127A000000227051
:10097000001BB70001005C0002006000030068007B
:1009800004006C000500700006007800F949096851
:1009900041F48031F74A116007E0F649096841F4F3
:1009A000A021F44A116000E000BF00BF7047F14889
:1009B000006840F00100EF490860EE480830006828
:1009C000ED490840EB4908310860EA480068EB4906
:1009D0000840E84908600846006820F48020086064
:1009E000E4480830006820F4FE00E249083108605D
:1009F0000020091D0860704710B50446FFF7D7FFB7
:100A00004FF48030FFF798FF03E0FFF77AFF00B163
:100A100000E0FAE700BF0020FFF7D6FD21464FF4C3
:100A20008000FFF702FE0120FFF7CEFD0220FFF756
:100A3000A5FD10BD01460020CE4A106820F0F80048
:100A400040EAC10010607047012806D1C949096811
:100A500041F00101C74A116005E0C649096821F06B
:100A60000101C44A11607047C2480830006800F0B4
:100A70000C00704701460020BE4A0832106820F082
:100A8000F00008431060704701460020B94A083260
:100A9000106820F4E06008431060704701460020B1
:100AA000B44A0832106820F4605040EAC100106077
:100AB000704741B1AF4A0C32126842EA0022AD4B96
:100AC0000C331A6007E0AB4A0C32126822EA0022AB
:100AD000A84B0C331A607047A649083109680143D6
:100AE000A44A08321160704701460020A14A08322A
:100AF000106820F440400843106070479D49303131
:100B0000096821F001019B4A3032116011460968E1
:100B100021F001011160012802D0042812D108E05F
:100B200094493031096841F00101924A3032116034
:100B300009E090493031096841F005018D4A3032B1
:100B4000116000E000BF00BF704740B189493431F7
:100B5000096841F00101874A3432116007E0854994
:100B60003431096821F00101824A34321160704742
:100B700080493031096801437E4A30321160704744
:100B800040B17C493031096841F40041794A303242
:100B9000116007E077493031096821F40041754A56
:100BA000303211607047F0B50146724E0836356834
:100BB00005F00C0616B9724E0E603CE005F00C060E
:100BC000042E02D16F4E0E6035E06A4E361D32683B
:100BD000C2F386135B1CC2F3011008B901200AE0BE
:100BE000012801D1022006E0022801D1042002E000
:100BF000032800D1082002F00F04641C02F48006D0
:100C000096B105F480363EB15F4E5E4304FB00F7BB
:100C100096FBF7F60E600EE05A4E5E4304FB00F7BB
:100C200096FBF7F60E6006E0564E5E4304FB00F7B7
:100C300096FBF7F60E60F0BD70B504460025002661
:100C40004C480830006800F00C0525B1042D05D093
:100C5000082D0DD105E04A4820600CE0484820608E
:100C600009E04A48006820602046FFF79CFF02E048
:100C70004348206000BF00BF3E480830006800F0D5
:100C8000F0052D094248465D2068F0406060394813
:100C90000830006800F4E0652D0A3D48465D606854
:100CA000F040A06033480830006800F46055ED0A59
:100CB0003748465D6068F040E0602E4808300068C4
:100CC00000F44045AD0B3348465DE068B0FBF6F0FC
:100CD000206170BD39B1274A203212680243254B8A
:100CE00020331A6006E0234A203212688243214BE7
:100CF00020331A60704739B11E4A2C321268024301
:100D00001C4B2C331A6006E01A4A2C3212688243BC
:100D1000184B2C331A6070471F490860704739B16F
:100D2000144A283212680243124B28331A6006E034
:100D3000104A2832126882430E4B28331A607047DB
:100D400039B10C4A1C32126802430A4B1C331A6038
:100D500006E0084A1C3212688243064B1C331A60B4
:100D60007047D9B1034A183212680243014B183355
:100D70001A6018E0003802400000FFF8FFFFF6FE9E
:100D800000127A00001BB700808D5B00000022700B
:100D90000800227018002270400447421F4A12685F
:100DA00082431E4B1A607047012808D11B4918392D
:100DB000096841F40021194A183A116007E01749FF
:100DC0001839096821F40021144A183A1160704753
:100DD00012491039096841EA0061104A103A11605D
:100DE00070470E481C30006840F080700B491C3181
:100DF0000860704701460020084A0C3A12680A4011
:100E00000AB1012000E00020704704490C3909684C
:100E100041EA0041014A0C3A11607047183802401B
:100E2000064C074D06E0E06840F0010394E8070037
:100E300098471034AC42F6D3FFF7BCF9640E027049
:100E4000840E027002E008C8121F08C1002AFAD1FD
:100E500070477047002001E001C1121F002AFBD13A
:100E600070470000840E0270000022701C00000019
:100E7000440E0270A00E02701C00227004120000CA
:100E8000540E0270006CDC02040000000000000040
:100E9000010203040102030406070809020406080C
:04000005700201ADD7
:00000001FF
