:02000004700288
:10000000801222704D0202705B0202705D0202706B
:100010005F02027061020270630202700000000061
:1000200000000000000000000000000065020270F7
:100030006702027000000000690202706B02027029
:100040006D020270000000006D0202706D0202700D
:10005000000000006D0202706D0202706D020270FD
:100060006D0202706D0202706D0202706D0202700C
:100070006D0202706D0202706D0202706D020270FC
:100080006D0202706D0202706D0202706D020270EC
:100090000000000000000000000000006D0202707F
:1000A0006D0202706D0202706D0202706D020270CC
:1000B0006D0202706D0202706D0202706D020270BC
:1000C0006D0202706D0202706D0202706D020270AC
:1000D0006D0202706D0202706D0202706D0202709C
:1000E0006D0202706D0202706D0202706D0202708C
:1000F0006D0202706D0202706D0202706D0202707C
:10010000390702706D0202706D0202706D0202709A
:100110006D0202706D020270000000006D0202703C
:100120006D0202706D0202706D0202706D0202704B
:100130006D0202706D0202706D0202706D0202703B
:100140000000000000000000000000006D020270CE
:100150006D0202706D0202706D02027000000000FC
:100160006D0202706D0202700000000000000000CD
:10017000000000000000000000000000000000007F
:10018000000000006D02027000000000000000008E
:100190006D020270000000006D0202706D020270BC
:1001A0006D020270000000006D02027000F002F8A3
:1001B00000F03CF80AA090E8000C82448344AAF1C5
:1001C0000107DA4501D100F031F8AFF2090EBAE8C3
:1001D0000F0013F0010F18BFFB1A43F0010318477B
:1001E000C4070000E4070000103A24BF78C878C1B3
:1001F000FAD8520724BF30C830C144BF04680C602D
:10020000704700000023002400250026103A28BF74
:1002100078C1FBD8520728BF30C148BF0B60704778
:100220001FB500F0B9FB1FBD10B510BD00F070F890
:100230001146FFF7F5FF00F075FB00F0A2F803B4DC
:10024000FFF7F2FF03BC00F00DFB00000B48016854
:1002500041F4700101600A480047FEE7FEE7FEE74F
:10026000FEE7FEE7FEE7FEE7FEE7FEE7FEE700004B
:1002700004480549034A054B7047000088ED00E03B
:10028000AD01027080002270801222708000227006
:10029000704700000FB4044910B503AA029800F09B
:1002A00009F810BC5DF814FB00002270704770471D
:1002B00070477047074B70B50D467B4400F011F84E
:1002C0000446284600F020F810B14FF0FF3070BD12
:1002D000204670BDAB05000001694A1C0261087828
:1002E000704700B58FB0CDE9013100210591054976
:1002F0007944CDE903101146684600F02EF80FB09E
:1003000000BD0000E5FFFFFF007B00F080007047AC
:10031000754600F03FF8AE4605006946534620F0AA
:100320000700854618B020B5FFF7A2FFBDE82040C2
:100330004FF000064FF000074FF000084FF0000BA1
:1003400021F00701AC46ACE8C009ACE8C009ACE854
:10035000C009ACE8C0098D4670472DE9F04106465A
:100360000024D6E90170F5688046304603E0414636
:10037000B847641C3046A8470028F8D12046BDE89D
:10038000F08110B50446AFF300802046BDE8104070
:10039000FFF755BF00487047200022702DE9F0415B
:1003A000034600250026002000220024002791F8A3
:1003B00005C00CF00F0591F805C00CF0100CBCF155
:1003C000000F03D091F804C04CEA050591F800C075
:1003D000BCF1000F31D01C6800202BE04FF0010C65
:1003E0000CFA00F2D1F800C00CEA0206964220D1C5
:1003F00082004FF00F0C0CFA02F7BC4305FA02FC26
:100400004CEA040491F805C0BCF1280F06D14FF066
:10041000010C0CFA00FCC3F814C00AE091F805C006
:10042000BCF1480F05D14FF0010C0CFA00FCC3F8E9
:1004300010C0401C0828D1D31C60D1F800C0BCF10A
:10044000FF0F34D95C6800202EE000F1080C4FF05B
:10045000010808FA0CF2D1F800C00CEA0206964234
:1004600021D182004FF00F0C0CFA02F7BC4305FAC1
:1004700002FC4CEA040491F805C0BCF1280F05D138
:1004800000F1080C08FA0CF8C3F8148091F805C0C4
:10049000BCF1480F07D100F1080C4FF0010808FA31
:1004A0000CF8C3F81080401C0828CED35C60D1F84B
:1004B00000C04FEA1C4CBCF1000F3DD0D1F800C089
:1004C0004FEA1C4CC1F800C0DFF870C0DCF82840CF
:1004D00000202BE04FF0010C0CFA00F2D1F800C024
:1004E0000CEA0206964220D182004FF00F0C0CFA63
:1004F00002F7BC4305FA02FC4CEA040491F805C07B
:10050000BCF1280F06D14FF0010C0CFA00FCC3F827
:1005100014C00AE091F805C0BCF1480F05D14FF0B6
:10052000010C0CFA00FCC3F810C0401C0828D1D301
:10053000DFF808C0CCF82840BDE8F0810010024088
:10054000F0B503460C46250CD5B1210C002015E072
:1005500001F001057DB1244D2D6B87000F26BE40B3
:10056000B543214E356335462D6B860002FA06F6FB
:1005700035431D4E35634908451CE8B20828E7DBC2
:1005800004F47F45B5B1210A002011E001F0010516
:100590005DB15D6A87000F26BE40B5435D625D6A4E
:1005A000860002FA06F635435D624908451CE8B24A
:1005B0000828EBDBE5B2ADB1002011E001F0010548
:1005C0005DB11D6A87000F26BE40B5431D621D6ADE
:1005D000860002FA06F635431D624908451CE8B25A
:1005E0000828EBDBF0BD00000010024029B1064AEC
:1005F00012680243044B1A6004E0034A1268824303
:10060000014B1A60704700002038024029B1064AA9
:1006100012680243044B1A6004E0034A12688243E2
:10062000014B1A60704700002C38024070B5044638
:10063000002500262248006800F00C0525B1042D95
:1006400005D0082D0DD105E01E4820600CE01D48A6
:10065000206009E01C4800682060204600F012F984
:1006600002E01848206000BF00BF1548006800F095
:10067000F0052D091548465D2068F040606010487F
:10068000006800F4E0652D0A1048465D6068F0409F
:10069000A0600B48006800F46055ED0A0B48465D09
:1006A0006068F040E0600648006800F44045AD0B2B
:1006B0000748465DE068B0FBF6F0206170BD0000C1
:1006C0000838024000127A00040022700C002270E8
:1006D0001C00227010B51449096841F40051124AF7
:1006E000116000200AE041B201F01F0301229A408C
:1006F0000E4B4C0943F8242000BF401C5A28F2DB63
:1007000000210B4A11601146096841F00051116047
:10071000002004E00749425809030A50001DB0F5C3
:10072000007FF7DB10BD00002038024080E100E0D0
:1007300008ED00E0000002704FF0C040C0684FF0CC
:10074000C040C0684FF0C040C0684FF0C040C068B3
:100750004FF0C040C0684FF0C041C8607047416171
:10076000704721B1826942F00102826104E082692E
:100770004FF6FE731A408261704770B586B0064628
:100780000C460025F56925F0CF05A088E1880843CF
:10079000218908430543F561B56925F01F05A08946
:1007A000618908430543B56101A8FFF73FFF03983E
:1007B0002168B0FBF1F00509356206B070BD00009C
:1007C00030B587B005460C4601210846FFF70EFFFD
:1007D0004FF40070019002208DF8080018208DF869
:1007E000090001A91E48FFF7D9FD4FF48060019070
:1007F00002208DF8080048208DF8090001A918484A
:10080000FFF7CCFD08224FF4C0611548FFF798FEB2
:100810000B224FF400411248FFF792FE0121042001
:10082000FFF7F4FE03943020ADF810000020ADF87F
:100830001200ADF814001820ADF816000020ADF835
:10084000180003A92846FFF798FF01212846FFF763
:1008500088FFFF212846FFF782FF07B030BD000068
:100860000000024000BF704700BF054A126802F056
:100870000102002AF9D0C2B2014B083B1A6070474E
:1008800008080140F0B50146224E356805F00C0617
:1008900016B9214E0E603CE005F00C06042E02D184
:1008A0001E4E0E6035E01B4E361F3268C2F38613B3
:1008B0005B1CC2F3011008B901200AE0012801D134
:1008C000022006E0022801D1042002E0032800D122
:1008D000082002F00F04641C02F4800696B105F4AF
:1008E00080363EB10E4E5E4304FB00F796FBF7F6F2
:1008F0000E600EE0094E5E4304FB00F796FBF7F630
:100900000E6006E0054E5E4304FB00F796FBF7F62B
:100910000E60F0BD0838024000127A00001BB700DC
:10092000808D5B00FFF7D6FE4FF4E1210948FFF709
:1009300047FF0EE008A0FFF7ADFC0BA0FFF7AAFCF5
:100940000DA0FFF7A7FC134C00BF201EA4F101046B
:10095000FBD1EFE7000801400D0A20484A5220541D
:100960004B343939200D0A00205541525431204F63
:100970004B200D0A000000002077656C636F6D65E9
:1009800020746F2075736520544B343939210D0A5A
:1009900000000000809698004FF04070E1EE100AD1
:1009A00070470000C409027000002270200000009F
:1009B000E8010270E4090270200022706012000059
:1009C0000402027000000000006CDC020400000061
:1009D00000000000010203040102030406070809E5
:0409E00002040608FF
:04000005700201ADD7
:00000001FF
